{
  "contractName": "Kesholabs",
  "abi": [
    {
      "anonymous": false,
      "inputs": [
        {
          "indexed": true,
          "internalType": "address",
          "name": "from",
          "type": "address"
        },
        {
          "indexed": false,
          "internalType": "uint48",
          "name": "_phoneNumber",
          "type": "uint48"
        },
        {
          "indexed": false,
          "internalType": "uint256",
          "name": "_amount",
          "type": "uint256"
        },
        {
          "indexed": false,
          "internalType": "bytes32",
          "name": "_id",
          "type": "bytes32"
        },
        {
          "indexed": false,
          "internalType": "uint256",
          "name": "time",
          "type": "uint256"
        }
      ],
      "name": "LOG1",
      "type": "event"
    },
    {
      "constant": false,
      "inputs": [
        {
          "internalType": "address",
          "name": "_sender",
          "type": "address"
        },
        {
          "internalType": "uint48",
          "name": "_phoneNumber",
          "type": "uint48"
        },
        {
          "internalType": "uint256",
          "name": "_amount",
          "type": "uint256"
        }
      ],
      "name": "query",
      "outputs": [
        {
          "internalType": "bytes32",
          "name": "_id",
          "type": "bytes32"
        }
      ],
      "payable": false,
      "stateMutability": "nonpayable",
      "type": "function"
    }
  ],
  "bytecode": "0x608060405234801561001057600080fd5b506101d6806100206000396000f3fe608060405234801561001057600080fd5b506004361061002b5760003560e01c80634b0e804c14610030575b600080fd5b61008e6004803603606081101561004657600080fd5b81019080803573ffffffffffffffffffffffffffffffffffffffff169060200190929190803565ffffffffffff169060200190929190803590602001909291905050506100a4565b6040518082815260200191505060405180910390f35b6000838383604051602001808473ffffffffffffffffffffffffffffffffffffffff1673ffffffffffffffffffffffffffffffffffffffff1660601b81526014018365ffffffffffff1665ffffffffffff1660d01b815260060182815260200193505050506040516020818303038152906040528051906020012090508373ffffffffffffffffffffffffffffffffffffffff167f669a049854e55227fd722dee39dae6a6a44bf731d4d3ca77e8f6f223c13d077884848442604051808565ffffffffffff1665ffffffffffff16815260200184815260200183815260200182815260200194505050505060405180910390a2809050939250505056fea265627a7a72315820897f9be783d22bdf5fea675a9588edd49e2d0624b08f8ac02f0df3fe0745a97964736f6c63430005100032",
  "source": "// <kesholabsAPI>\n/*\n\nCopyright (c) 2020 kesholabs\nPermission is hereby granted, free of charge, to any person obtaining a copy\nof this software and associated documentation files (the \"Software\"), to deal\nin the Software without restriction, including without limitation the rights\nto use, copy, modify, merge, publish, distribute, sublicense, and/or sell\ncopies of the Software, and to permit persons to whom the Software is\nfurnished to do so, subject to the following conditions:\nThe above copyright notice and this permission notice shall be included in\nall copies or substantial portions of the Software.\nTHE SOFTWARE IS PROVIDED \"AS IS\", WITHOUT WARRANTY OF ANY KIND, EXPRESS OR\nIMPLIED, INCLUDING BUT NOT LIMITED TO THE WARRANTIES OF MERCHANTABILITY,\nFITNESS FOR A PARTICULAR PURPOSE AND NONINFRINGEMENT.  IN NO EVENT SHALL THE\nAUTHORS OR COPYRIGHT HOLDERS BE LIABLE FOR ANY CLAIM, DAMAGES OR OTHER\nLIABILITY, WHETHER IN AN ACTION OF CONTRACT, TORT OR OTHERWISE, ARISING FROM,\nOUT OF OR IN CONNECTION WITH THE SOFTWARE OR THE USE OR OTHER DEALINGS IN\nTHE SOFTWARE.\n*/\n\n\n\n\npragma solidity >=0.4.21 <0.7.0;\n\ncontract Kesholabs  {\n    \n    event LOG1(\n        address indexed from,\n        uint48 _phoneNumber,\n        uint256 _amount,\n        bytes32 _id,\n        uint256 time\n        );\n\n    function query(address _sender, uint48 _phoneNumber, uint256 _amount) external returns(bytes32 _id){\n         _id = keccak256(abi.encodePacked(_sender, _phoneNumber, _amount));\n\n         emit LOG1(_sender,_phoneNumber, _amount,_id, now);\n\n         return _id;\n    }\n}\n\n\n\n",
  "sourcePath": "/home/collins/Desktop/Kesholabs/oracle/contracts/contracts/kesholabs.sol",
  "compiler": {
    "name": "solc",
    "version": "0.5.16+commit.9c3226ce.Emscripten.clang"
  },
  "schemaVersion": "3.0.23",
  "updatedAt": "2020-04-15T09:20:55.992Z",
  "devdoc": {
    "methods": {}
  },
  "userdoc": {
    "methods": {}
  }
}