{
  "contractName": "Restv1",
  "abi": [
    {
      "anonymous": false,
      "inputs": [
        {
          "indexed": false,
          "name": "_description",
          "type": "string"
        }
      ],
      "name": "LogNewProvableQuery",
      "type": "event"
    },
    {
      "constant": false,
      "inputs": [
        {
          "name": "myid",
          "type": "bytes32"
        }
      ],
      "name": "_callback",
      "outputs": [],
      "payable": false,
      "stateMutability": "nonpayable",
      "type": "function"
    },
    {
      "constant": false,
      "inputs": [
        {
          "name": "_number",
          "type": "string"
        },
        {
          "name": "_amount",
          "type": "string"
        }
      ],
      "name": "_push",
      "outputs": [],
      "payable": false,
      "stateMutability": "nonpayable",
      "type": "function"
    }
  ],
  "bytecode": "0x608060405234801561001057600080fd5b50610374806100206000396000f3fe608060405234801561001057600080fd5b50600436106100365760003560e01c806331a69f0e1461003b57806340acd12014610069575b600080fd5b6100676004803603602081101561005157600080fd5b81019080803590602001909291905050506101bb565b005b6101b96004803603604081101561007f57600080fd5b810190808035906020019064010000000081111561009c57600080fd5b8201836020820111156100ae57600080fd5b803590602001918460018302840111640100000000831117156100d057600080fd5b91908080601f016020809104026020016040519081016040528093929190818152602001838380828437600081840152601f19601f8201169050808301925050505050505091929192908035906020019064010000000081111561013357600080fd5b82018360208201111561014557600080fd5b8035906020019184600183028401116401000000008311171561016757600080fd5b91908080601f016020809104026020016040519081016040528093929190818152602001838380828437600081840152601f19601f8201169050808301925050505050505091929192905050506101be565b005b50565b60008060003373ffffffffffffffffffffffffffffffffffffffff1673ffffffffffffffffffffffffffffffffffffffff16815260200190815260200160002090506000600190508382600001908051906020019061021e9291906102a3565b50828260010190805190602001906102379291906102a3565b50803390806001815401808255809150509060018203906000526020600020016000909192909190916101000a81548173ffffffffffffffffffffffffffffffffffffffff021916908373ffffffffffffffffffffffffffffffffffffffff1602179055505050505050565b828054600181600116156101000203166002900490600052602060002090601f016020900481019282601f106102e457805160ff1916838001178555610312565b82800160010185558215610312579182015b828111156103115782518255916020019190600101906102f6565b5b50905061031f9190610323565b5090565b61034591905b80821115610341576000816000905550600101610329565b5090565b9056fea165627a7a72305820209dfe77ceace343e7733c990e4baa31296fdc224640e83958383a0ba37d4dcc0029",
  "source": "pragma solidity 0.5.8;\n\ncontract Restv1 {\n\n    event LogNewProvableQuery(string _description);\n    \n    struct Queuevalues {\n        string phoneNumber;\n        string amount;\n        bytes32 queryId;\n    }\n    \n    mapping (address=>Queuevalues) internal Queuemap;\n    address[] queueArray;\n\n\n    function _callback(bytes32 myid) public {\n        \n    }\n\n    function _push(string memory _number,string memory _amount) public {\n        Queuevalues storage queue = Queuemap[msg.sender];\n        address[] storage arr = queueArray;\n        queue.phoneNumber = _number;\n        queue.amount = _amount;\n        arr.push(msg.sender);\n        \n    }\n\n}",
  "sourcePath": "/home/collins/Desktop/Rest/Dapp/contracts/Restv1.sol",
  "compiler": {
    "name": "solc",
    "version": "0.5.8+commit.23d335f2.Emscripten.clang"
  },
  "schemaVersion": "3.0.11",
  "updatedAt": "2019-07-24T17:10:32.873Z",
  "devdoc": {
    "methods": {}
  },
  "userdoc": {
    "methods": {}
  }
}